{
  "address": "0x0b471c459679FED9a79Ec8257F663BC86c4F30b0",
  "abi": [
    {
      "inputs": [
        {
          "internalType": "address",
          "name": "_oldGUITA",
          "type": "address"
        },
        {
          "internalType": "address",
          "name": "_oldsGUITA",
          "type": "address"
        },
        {
          "internalType": "address",
          "name": "_oldTreasury",
          "type": "address"
        },
        {
          "internalType": "address",
          "name": "_oldStaking",
          "type": "address"
        },
        {
          "internalType": "address",
          "name": "_oldwsGUITA",
          "type": "address"
        },
        {
          "internalType": "address",
          "name": "_sushi",
          "type": "address"
        },
        {
          "internalType": "address",
          "name": "_uni",
          "type": "address"
        },
        {
          "internalType": "uint256",
          "name": "_timelock",
          "type": "uint256"
        },
        {
          "internalType": "address",
          "name": "_authority",
          "type": "address"
        }
      ],
      "stateMutability": "nonpayable",
      "type": "constructor"
    },
    {
      "anonymous": false,
      "inputs": [
        {
          "indexed": true,
          "internalType": "contract IGuitaAuthority",
          "name": "authority",
          "type": "address"
        }
      ],
      "name": "AuthorityUpdated",
      "type": "event"
    },
    {
      "anonymous": false,
      "inputs": [
        {
          "indexed": false,
          "internalType": "uint256",
          "name": "amount",
          "type": "uint256"
        }
      ],
      "name": "Defunded",
      "type": "event"
    },
    {
      "anonymous": false,
      "inputs": [
        {
          "indexed": false,
          "internalType": "uint256",
          "name": "amount",
          "type": "uint256"
        }
      ],
      "name": "Funded",
      "type": "event"
    },
    {
      "anonymous": false,
      "inputs": [
        {
          "indexed": false,
          "internalType": "address",
          "name": "staking",
          "type": "address"
        },
        {
          "indexed": false,
          "internalType": "address",
          "name": "treasury",
          "type": "address"
        }
      ],
      "name": "Migrated",
      "type": "event"
    },
    {
      "anonymous": false,
      "inputs": [
        {
          "indexed": false,
          "internalType": "uint256",
          "name": "block",
          "type": "uint256"
        },
        {
          "indexed": false,
          "internalType": "uint256",
          "name": "end",
          "type": "uint256"
        }
      ],
      "name": "TimelockStarted",
      "type": "event"
    },
    {
      "inputs": [],
      "name": "authority",
      "outputs": [
        {
          "internalType": "contract IGuitaAuthority",
          "name": "",
          "type": "address"
        }
      ],
      "stateMutability": "view",
      "type": "function"
    },
    {
      "inputs": [
        {
          "internalType": "uint256",
          "name": "_amount",
          "type": "uint256"
        },
        {
          "internalType": "enum GuitaTokenMigrator.TYPE",
          "name": "_to",
          "type": "uint8"
        }
      ],
      "name": "bridgeBack",
      "outputs": [],
      "stateMutability": "nonpayable",
      "type": "function"
    },
    {
      "inputs": [
        {
          "internalType": "address",
          "name": "reserve",
          "type": "address"
        }
      ],
      "name": "defund",
      "outputs": [],
      "stateMutability": "nonpayable",
      "type": "function"
    },
    {
      "inputs": [],
      "name": "gGUITA",
      "outputs": [
        {
          "internalType": "contract IgGUITA",
          "name": "",
          "type": "address"
        }
      ],
      "stateMutability": "view",
      "type": "function"
    },
    {
      "inputs": [],
      "name": "guitaMigrated",
      "outputs": [
        {
          "internalType": "bool",
          "name": "",
          "type": "bool"
        }
      ],
      "stateMutability": "view",
      "type": "function"
    },
    {
      "inputs": [],
      "name": "halt",
      "outputs": [],
      "stateMutability": "nonpayable",
      "type": "function"
    },
    {
      "inputs": [
        {
          "internalType": "uint256",
          "name": "_amount",
          "type": "uint256"
        },
        {
          "internalType": "enum GuitaTokenMigrator.TYPE",
          "name": "_from",
          "type": "uint8"
        },
        {
          "internalType": "enum GuitaTokenMigrator.TYPE",
          "name": "_to",
          "type": "uint8"
        }
      ],
      "name": "migrate",
      "outputs": [],
      "stateMutability": "nonpayable",
      "type": "function"
    },
    {
      "inputs": [
        {
          "internalType": "enum GuitaTokenMigrator.TYPE",
          "name": "_to",
          "type": "uint8"
        }
      ],
      "name": "migrateAll",
      "outputs": [],
      "stateMutability": "nonpayable",
      "type": "function"
    },
    {
      "inputs": [
        {
          "internalType": "address",
          "name": "_newTreasury",
          "type": "address"
        },
        {
          "internalType": "address",
          "name": "_newStaking",
          "type": "address"
        },
        {
          "internalType": "address",
          "name": "_newGUITA",
          "type": "address"
        },
        {
          "internalType": "address",
          "name": "_newsGUITA",
          "type": "address"
        },
        {
          "internalType": "address",
          "name": "_reserve",
          "type": "address"
        }
      ],
      "name": "migrateContracts",
      "outputs": [],
      "stateMutability": "nonpayable",
      "type": "function"
    },
    {
      "inputs": [
        {
          "internalType": "address",
          "name": "pair",
          "type": "address"
        },
        {
          "internalType": "bool",
          "name": "sushi",
          "type": "bool"
        },
        {
          "internalType": "address",
          "name": "token",
          "type": "address"
        },
        {
          "internalType": "uint256",
          "name": "_minA",
          "type": "uint256"
        },
        {
          "internalType": "uint256",
          "name": "_minB",
          "type": "uint256"
        }
      ],
      "name": "migrateLP",
      "outputs": [],
      "stateMutability": "nonpayable",
      "type": "function"
    },
    {
      "inputs": [
        {
          "internalType": "address",
          "name": "token",
          "type": "address"
        }
      ],
      "name": "migrateToken",
      "outputs": [],
      "stateMutability": "nonpayable",
      "type": "function"
    },
    {
      "inputs": [],
      "name": "newGUITA",
      "outputs": [
        {
          "internalType": "contract IERC20",
          "name": "",
          "type": "address"
        }
      ],
      "stateMutability": "view",
      "type": "function"
    },
    {
      "inputs": [],
      "name": "newStaking",
      "outputs": [
        {
          "internalType": "contract IStaking",
          "name": "",
          "type": "address"
        }
      ],
      "stateMutability": "view",
      "type": "function"
    },
    {
      "inputs": [],
      "name": "newTreasury",
      "outputs": [
        {
          "internalType": "contract ITreasury",
          "name": "",
          "type": "address"
        }
      ],
      "stateMutability": "view",
      "type": "function"
    },
    {
      "inputs": [],
      "name": "oldGUITA",
      "outputs": [
        {
          "internalType": "contract IERC20",
          "name": "",
          "type": "address"
        }
      ],
      "stateMutability": "view",
      "type": "function"
    },
    {
      "inputs": [],
      "name": "oldStaking",
      "outputs": [
        {
          "internalType": "contract IStakingV1",
          "name": "",
          "type": "address"
        }
      ],
      "stateMutability": "view",
      "type": "function"
    },
    {
      "inputs": [],
      "name": "oldSupply",
      "outputs": [
        {
          "internalType": "uint256",
          "name": "",
          "type": "uint256"
        }
      ],
      "stateMutability": "view",
      "type": "function"
    },
    {
      "inputs": [],
      "name": "oldTreasury",
      "outputs": [
        {
          "internalType": "contract ITreasuryV1",
          "name": "",
          "type": "address"
        }
      ],
      "stateMutability": "view",
      "type": "function"
    },
    {
      "inputs": [],
      "name": "oldsGUITA",
      "outputs": [
        {
          "internalType": "contract IsGUITA",
          "name": "",
          "type": "address"
        }
      ],
      "stateMutability": "view",
      "type": "function"
    },
    {
      "inputs": [],
      "name": "oldwsGUITA",
      "outputs": [
        {
          "internalType": "contract IwsGUITA",
          "name": "",
          "type": "address"
        }
      ],
      "stateMutability": "view",
      "type": "function"
    },
    {
      "inputs": [
        {
          "internalType": "contract IGuitaAuthority",
          "name": "_newAuthority",
          "type": "address"
        }
      ],
      "name": "setAuthority",
      "outputs": [],
      "stateMutability": "nonpayable",
      "type": "function"
    },
    {
      "inputs": [
        {
          "internalType": "address",
          "name": "_gGUITA",
          "type": "address"
        }
      ],
      "name": "setgGUITA",
      "outputs": [],
      "stateMutability": "nonpayable",
      "type": "function"
    },
    {
      "inputs": [],
      "name": "shutdown",
      "outputs": [
        {
          "internalType": "bool",
          "name": "",
          "type": "bool"
        }
      ],
      "stateMutability": "view",
      "type": "function"
    },
    {
      "inputs": [],
      "name": "startTimelock",
      "outputs": [],
      "stateMutability": "nonpayable",
      "type": "function"
    },
    {
      "inputs": [],
      "name": "sushiRouter",
      "outputs": [
        {
          "internalType": "contract IUniswapV2Router",
          "name": "",
          "type": "address"
        }
      ],
      "stateMutability": "view",
      "type": "function"
    },
    {
      "inputs": [],
      "name": "timelockEnd",
      "outputs": [
        {
          "internalType": "uint256",
          "name": "",
          "type": "uint256"
        }
      ],
      "stateMutability": "view",
      "type": "function"
    },
    {
      "inputs": [],
      "name": "timelockLength",
      "outputs": [
        {
          "internalType": "uint256",
          "name": "",
          "type": "uint256"
        }
      ],
      "stateMutability": "view",
      "type": "function"
    },
    {
      "inputs": [],
      "name": "uniRouter",
      "outputs": [
        {
          "internalType": "contract IUniswapV2Router",
          "name": "",
          "type": "address"
        }
      ],
      "stateMutability": "view",
      "type": "function"
    },
    {
      "inputs": [
        {
          "internalType": "address",
          "name": "tokenAddress",
          "type": "address"
        },
        {
          "internalType": "uint256",
          "name": "amount",
          "type": "uint256"
        },
        {
          "internalType": "address",
          "name": "recipient",
          "type": "address"
        }
      ],
      "name": "withdrawToken",
      "outputs": [],
      "stateMutability": "nonpayable",
      "type": "function"
    }
  ],
  "transactionHash": "0x6ec058033994368e3c27397b8907285683cc3fc67db483dcdaa2cf27c03595b0",
  "args": [
    "0xC0b491daBf3709Ee5Eb79E603D73289Ca6060932",
    "0x1Fecda1dE7b6951B248C0B62CaeBD5BAbedc2084",
    "0x0d722D813601E48b7DAcb2DF9bae282cFd98c6E7",
    "0xC5d3318C0d74a72cD7C55bdf844e24516796BaB2",
    "0xe73384f11Bb748Aa0Bc20f7b02958DF573e6E2ad",
    "0x1b02dA8Cb0d097eB8D57A175b88c7D8b47997506",
    "0x7a250d5630B4cF539739dF2C5dAcb4c659F2488D",
    "0",
    "0x03B5A752CF8612EA07Fe6f2b4a821350fC6B6BED"
  ],
  "solcInputHash": "9d106ecb20554386a0a7c53b98feee22",
  "bytecode": "0x6101c0604052600c6101808190526b15539055551213d49256915160a21b6101a0908152620000329160009190620003fc565b503480156200004057600080fd5b50604051620040463803806200404683398181016040526101208110156200006757600080fd5b50805160208201516040808401516060850151608086015160a087015160c088015160e089015161010090990151600180546001600160a01b0319166001600160a01b038316908117909155965198999798959794969395929491939192909182917f2f658b440c35314f52658ea8a740e05b284cdc84dc9ae01e891f21b8933e7cad90600090a2506001600160a01b0389166200014c576040805162461bcd60e51b815260206004820152601360248201527f5a65726f20616464726573733a20475549544100000000000000000000000000604482015290519081900360640190fd5b6001600160601b031960608a901b166080526001600160a01b038816620001ba576040805162461bcd60e51b815260206004820152601460248201527f5a65726f20616464726573733a20734755495441000000000000000000000000604482015290519081900360640190fd5b6001600160601b0319606089901b1660a0526001600160a01b03871662000228576040805162461bcd60e51b815260206004820152601660248201527f5a65726f20616464726573733a20547265617375727900000000000000000000604482015290519081900360640190fd5b6001600160601b0319606088901b1660e0526001600160a01b03861662000296576040805162461bcd60e51b815260206004820152601560248201527f5a65726f20616464726573733a205374616b696e670000000000000000000000604482015290519081900360640190fd5b6001600160601b0319606087901b16610100526001600160a01b03851662000305576040805162461bcd60e51b815260206004820152601560248201527f5a65726f20616464726573733a20777347554954410000000000000000000000604482015290519081900360640190fd5b6001600160601b0319606086901b1660c0526001600160a01b03841662000373576040805162461bcd60e51b815260206004820152601360248201527f5a65726f20616464726573733a20537573686900000000000000000000000000604482015290519081900360640190fd5b6001600160601b0319606085901b16610120526001600160a01b038316620003d6576040805162461bcd60e51b81526020600482015260116024820152705a65726f20616464726573733a20556e6960781b604482015290519081900360640190fd5b5060609190911b6001600160601b031916610140526101605250620004a8945050505050565b828054600181600116156101000203166002900490600052602060002090601f0160209004810192826200043457600085556200047f565b82601f106200044f57805160ff19168380011785556200047f565b828001600101855582156200047f579182015b828111156200047f57825182559160200191906001019062000462565b506200048d92915062000491565b5090565b5b808211156200048d576000815560010162000492565b60805160601c60a05160601c60c05160601c60e05160601c6101005160601c6101205160601c6101405160601c61016051613a59620005ed6000398061081352806115545250806111cd528061247d52508061101c5280612454525080610caf5280611e295280611efe525080611a8f52806120585280612112528061233b52806123ee5280613365528061340d52806134ae528061353b5250806104cb528061065d5280610b295280611185528061128c52806113d25280611c7e52806129225280612b5e5280612b955250806106285280610aa252806111a9528061138a52806119aa5280611d9e5280611e5d52806128655280612b235250806105da528061069c52806107ef5280610a1b528061133d52806118a65280611f5d5280612029528061254052806129ba5280612a675280612ae85280612c425250613a596000f3fe608060405234801561001057600080fd5b50600436106101cf5760003560e01c80638b5c3f2011610104578063bf7e214f116100a2578063ec78f90b11610071578063ec78f90b14610426578063ed44527b14610446578063f96a60061461044e578063fc0e74d114610474576101cf565b8063bf7e214f146103ae578063cf0ef516146103b6578063d6fa3760146103be578063dfd9e685146103e4576101cf565b8063abacbb2f116100de578063abacbb2f14610330578063adf21d2514610356578063b29c74441461035e578063b71a6df314610366576101cf565b80638b5c3f2014610318578063a012d7be14610320578063a0e47bf614610328576101cf565b80634f39d5d011610171578063694d66351161014b578063694d6635146102da5780636d13582c146102e2578063728e7b4c146102ea5780637a9e5e4b146102f2576101cf565b80634f39d5d0146102905780635ed7ca5b146102ac57806367326b52146102b4576101cf565b8063219a1f81116101ad578063219a1f81146102425780633ccdbb281461024a5780634579b8b4146102805780634edf898014610288576101cf565b80630465f072146101d45780630585084414610204578063114a41d01461021e575b600080fd5b610202600480360360608110156101ea57600080fd5b5080359060ff6020820135811691604001351661047c565b005b61020c6107e7565b60408051918252519081900360200190f35b6102266107ed565b604080516001600160a01b039092168252519081900360200190f35b61020c610811565b6102026004803603606081101561026057600080fd5b506001600160a01b03813581169160208101359160409091013516610835565b610226610c9e565b610226610cad565b610298610cd1565b604080519115158252519081900360200190f35b610202610ce1565b610202600480360360208110156102ca57600080fd5b50356001600160a01b0316610e4d565b61020c611014565b61022661101a565b61022661103e565b6102026004803603602081101561030857600080fd5b50356001600160a01b031661104d565b610226611183565b6102266111a7565b6102266111cb565b6102026004803603604081101561034657600080fd5b508035906020013560ff166111ef565b6102266113fe565b61020261140d565b610202600480360360a081101561037c57600080fd5b506001600160a01b038135811691602081013582169160408201358116916060810135821691608090910135166115ba565b610226611a7e565b610226611a8d565b610202600480360360208110156103d457600080fd5b50356001600160a01b0316611ab1565b610202600480360360a08110156103fa57600080fd5b506001600160a01b0381358116916020810135151591604082013516906060810135906080013561223c565b6102026004803603602081101561043c57600080fd5b503560ff16612815565b610226612d8d565b6102026004803603602081101561046457600080fd5b50356001600160a01b0316612d9c565b610298612e96565b600554600160a81b900460ff16156104c7576040805162461bcd60e51b815260206004820152600960248201526829b43aba103237bbb760b91b604482015290519081900360640190fd5b60007f00000000000000000000000000000000000000000000000000000000000000006001600160a01b0316634cb63e0d856040518263ffffffff1660e01b81526004018082815260200191505060206040518083038186803b15801561052d57600080fd5b505afa158015610541573d6000803e3d6000fd5b505050506040513d602081101561055757600080fd5b50519050600083600281111561056957fe5b141561060757600554600160a01b900460ff166105cd576040805162461bcd60e51b815260206004820152601b60248201527f4f6e6c79207374616b656420756e74696c206d6967726174696f6e0000000000604482015290519081900360640190fd5b6106026001600160a01b037f000000000000000000000000000000000000000000000000000000000000000016333087612ea6565b610688565b600183600281111561061557fe5b1415610650576106026001600160a01b037f000000000000000000000000000000000000000000000000000000000000000016333087612ea6565b6106856001600160a01b037f000000000000000000000000000000000000000000000000000000000000000016333087612ea6565b50825b600554600160a01b900460ff1615610775577f00000000000000000000000000000000000000000000000000000000000000006001600160a01b03166318160ddd6040518163ffffffff1660e01b815260040160206040518083038186803b1580156106f357600080fd5b505afa158015610707573d6000803e3d6000fd5b505050506040513d602081101561071d57600080fd5b50516007541015610766576040805162461bcd60e51b815260206004820152600e60248201526d11d55255105d8c481b5a5b9d195960921b604482015290519081900360640190fd5b6107708183613019565b6107e1565b600254604080516340c10f1960e01b81523360048201526024810184905290516001600160a01b03909216916340c10f199160448082019260009290919082900301818387803b1580156107c857600080fd5b505af11580156107dc573d6000803e3d6000fd5b505050505b50505050565b60075481565b7f000000000000000000000000000000000000000000000000000000000000000081565b7f000000000000000000000000000000000000000000000000000000000000000081565b600160009054906101000a90046001600160a01b03166001600160a01b0316630c340a246040518163ffffffff1660e01b815260040160206040518083038186803b15801561088357600080fd5b505afa158015610897573d6000803e3d6000fd5b505050506040513d60208110156108ad57600080fd5b50516000906001600160a01b0316331461095a5760405162461bcd60e51b815260206004820190815282546002600019610100600184161502019091160460248301819052909182916044909101908490801561094b5780601f106109205761010080835404028352916020019161094b565b820191906000526020600020905b81548152906001019060200180831161092e57829003601f168201915b50509250505060405180910390fd5b506001600160a01b0383166109b6576040805162461bcd60e51b815260206004820152601b60248201527f546f6b656e20616464726573732063616e6e6f74206265203078300000000000604482015290519081900360640190fd5b6002546001600160a01b0384811691161415610a19576040805162461bcd60e51b815260206004820152601760248201527f43616e6e6f742077697468647261773a20674755495441000000000000000000604482015290519081900360640190fd5b7f00000000000000000000000000000000000000000000000000000000000000006001600160a01b0316836001600160a01b03161415610aa0576040805162461bcd60e51b815260206004820152601a60248201527f43616e6e6f742077697468647261773a206f6c642d4755495441000000000000604482015290519081900360640190fd5b7f00000000000000000000000000000000000000000000000000000000000000006001600160a01b0316836001600160a01b03161415610b27576040805162461bcd60e51b815260206004820152601b60248201527f43616e6e6f742077697468647261773a206f6c642d7347554954410000000000604482015290519081900360640190fd5b7f00000000000000000000000000000000000000000000000000000000000000006001600160a01b0316836001600160a01b03161415610bae576040805162461bcd60e51b815260206004820152601c60248201527f43616e6e6f742077697468647261773a206f6c642d7773475549544100000000604482015290519081900360640190fd5b60008211610bed5760405162461bcd60e51b8152600401808060200182810382526025815260200180613a286025913960400191505060405180910390fd5b6001600160a01b038116610bfe5750335b604080516370a0823160e01b8152306004820152905184916000916001600160a01b038416916370a08231916024808301926020929190829003018186803b158015610c4957600080fd5b505afa158015610c5d573d6000803e3d6000fd5b505050506040513d6020811015610c7357600080fd5b5051905080841115610c83578093505b610c976001600160a01b038316848661318c565b5050505050565b6003546001600160a01b031681565b7f000000000000000000000000000000000000000000000000000000000000000081565b600554600160a01b900460ff1681565b600160009054906101000a90046001600160a01b03166001600160a01b0316630505c8c96040518163ffffffff1660e01b815260040160206040518083038186803b158015610d2f57600080fd5b505afa158015610d43573d6000803e3d6000fd5b505050506040513d6020811015610d5957600080fd5b50516000906001600160a01b03163314610dcc5760405162461bcd60e51b815260206004820190815282546002600019610100600184161502019091160460248301819052909182916044909101908490801561094b5780601f106109205761010080835404028352916020019161094b565b50600554600160a01b900460ff1615610e2c576040805162461bcd60e51b815260206004820152601660248201527f4d6967726174696f6e20686173206f6363757272656400000000000000000000604482015290519081900360640190fd5b6005805460ff60a81b198116600160a81b9182900460ff1615909102179055565b600160009054906101000a90046001600160a01b03166001600160a01b0316630c340a246040518163ffffffff1660e01b815260040160206040518083038186803b158015610e9b57600080fd5b505afa158015610eaf573d6000803e3d6000fd5b505050506040513d6020811015610ec557600080fd5b50516000906001600160a01b03163314610f385760405162461bcd60e51b815260206004820190815282546002600019610100600184161502019091160460248301819052909182916044909101908490801561094b5780601f106109205761010080835404028352916020019161094b565b506002546001600160a01b031615610f97576040805162461bcd60e51b815260206004820152600b60248201527f416c726561647920736574000000000000000000000000000000000000000000604482015290519081900360640190fd5b6001600160a01b038116610ff2576040805162461bcd60e51b815260206004820152601460248201527f5a65726f20616464726573733a20674755495441000000000000000000000000604482015290519081900360640190fd5b600280546001600160a01b0319166001600160a01b0392909216919091179055565b60065481565b7f000000000000000000000000000000000000000000000000000000000000000081565b6005546001600160a01b031681565b600160009054906101000a90046001600160a01b03166001600160a01b0316630c340a246040518163ffffffff1660e01b815260040160206040518083038186803b15801561109b57600080fd5b505afa1580156110af573d6000803e3d6000fd5b505050506040513d60208110156110c557600080fd5b50516000906001600160a01b031633146111385760405162461bcd60e51b815260206004820190815282546002600019610100600184161502019091160460248301819052909182916044909101908490801561094b5780601f106109205761010080835404028352916020019161094b565b50600180546001600160a01b0319166001600160a01b0383169081179091556040517f2f658b440c35314f52658ea8a740e05b284cdc84dc9ae01e891f21b8933e7cad90600090a250565b7f000000000000000000000000000000000000000000000000000000000000000081565b7f000000000000000000000000000000000000000000000000000000000000000081565b7f000000000000000000000000000000000000000000000000000000000000000081565b600554600160a01b900460ff166112705760025460408051632770a7eb60e21b81523360048201526024810185905290516001600160a01b0390921691639dc29fac9160448082019260009290919082900301818387803b15801561125357600080fd5b505af1158015611267573d6000803e3d6000fd5b50505050611288565b600254611288906001600160a01b0316333085612ea6565b60007f00000000000000000000000000000000000000000000000000000000000000006001600160a01b03166346e7954a846040518263ffffffff1660e01b81526004018082815260200191505060206040518083038186803b1580156112ee57600080fd5b505afa158015611302573d6000803e3d6000fd5b505050506040513d602081101561131857600080fd5b50519050600082600281111561132a57fe5b1415611369576113646001600160a01b037f000000000000000000000000000000000000000000000000000000000000000016338361318c565b6113f9565b600182600281111561137757fe5b14156113b1576113646001600160a01b037f000000000000000000000000000000000000000000000000000000000000000016338361318c565b60028260028111156113bf57fe5b14156113f9576113f96001600160a01b037f000000000000000000000000000000000000000000000000000000000000000016338561318c565b505050565b6002546001600160a01b031681565b600160009054906101000a90046001600160a01b03166001600160a01b0316630c340a246040518163ffffffff1660e01b815260040160206040518083038186803b15801561145b57600080fd5b505afa15801561146f573d6000803e3d6000fd5b505050506040513d602081101561148557600080fd5b50516000906001600160a01b031633146114f85760405162461bcd60e51b815260206004820190815282546002600019610100600184161502019091160460248301819052909182916044909101908490801561094b5780601f106109205761010080835404028352916020019161094b565b506006541561154e576040805162461bcd60e51b815260206004820152600c60248201527f54696d656c6f636b207365740000000000000000000000000000000000000000604482015290519081900360640190fd5b611578437f00000000000000000000000000000000000000000000000000000000000000006132ef565b600681905560408051438152602081019290925280517f1f1c77590fcb154ccfac3f34adef3adfd45fa19cd5bd058297a1d6137d0229c09281900390910190a1565b600160009054906101000a90046001600160a01b03166001600160a01b0316630c340a246040518163ffffffff1660e01b815260040160206040518083038186803b15801561160857600080fd5b505afa15801561161c573d6000803e3d6000fd5b505050506040513d602081101561163257600080fd5b50516000906001600160a01b031633146116a55760405162461bcd60e51b815260206004820190815282546002600019610100600184161502019091160460248301819052909182916044909101908490801561094b5780601f106109205761010080835404028352916020019161094b565b50600554600160a01b900460ff1615611705576040805162461bcd60e51b815260206004820152601060248201527f416c7265616479206d6967726174656400000000000000000000000000000000604482015290519081900360640190fd5b6005805460ff60a81b197fffffffffffffffffffffff00ffffffffffffffffffffffffffffffffffffffff909116600160a01b171690556001600160a01b038516611797576040805162461bcd60e51b815260206004820152601660248201527f5a65726f20616464726573733a20547265617375727900000000000000000000604482015290519081900360640190fd5b600380546001600160a01b0319166001600160a01b0387811691909117909155841661180a576040805162461bcd60e51b815260206004820152601560248201527f5a65726f20616464726573733a205374616b696e670000000000000000000000604482015290519081900360640190fd5b600480546001600160a01b0319166001600160a01b0386811691909117909155831661187d576040805162461bcd60e51b815260206004820152601360248201527f5a65726f20616464726573733a20475549544100000000000000000000000000604482015290519081900360640190fd5b82600560006101000a8154816001600160a01b0302191690836001600160a01b031602179055507f00000000000000000000000000000000000000000000000000000000000000006001600160a01b03166318160ddd6040518163ffffffff1660e01b815260040160206040518083038186803b1580156118fd57600080fd5b505afa158015611911573d6000803e3d6000fd5b505050506040513d602081101561192757600080fd5b505160075560025460408051631068361f60e01b81526001600160a01b038781166004830152858116602483015291519190921691631068361f91604480830192600092919082900301818387803b15801561198257600080fd5b505af1158015611996573d6000803e3d6000fd5b505050506119a5816001613352565b611a327f00000000000000000000000000000000000000000000000000000000000000006001600160a01b0316639358928b6040518163ffffffff1660e01b815260040160206040518083038186803b158015611a0157600080fd5b505afa158015611a15573d6000803e3d6000fd5b505050506040513d6020811015611a2b57600080fd5b5051613691565b604080516001600160a01b0380871682528716602082015281517f844985ce6880ca51e25a6d4ecc8af37a5de880279f2081af96d0e875c42b7082929181900390910190a15050505050565b6001546001600160a01b031681565b7f000000000000000000000000000000000000000000000000000000000000000081565b600160009054906101000a90046001600160a01b03166001600160a01b0316630c340a246040518163ffffffff1660e01b815260040160206040518083038186803b158015611aff57600080fd5b505afa158015611b13573d6000803e3d6000fd5b505050506040513d6020811015611b2957600080fd5b50516000906001600160a01b03163314611b9c5760405162461bcd60e51b815260206004820190815282546002600019610100600184161502019091160460248301819052909182916044909101908490801561094b5780601f106109205761010080835404028352916020019161094b565b50600554600160a01b900460ff16611bfb576040805162461bcd60e51b815260206004820152601760248201527f4d6967726174696f6e20686173206e6f7420626567756e000000000000000000604482015290519081900360640190fd5b43600654108015611c0d575060065415155b611c5e576040805162461bcd60e51b815260206004820152601560248201527f54696d656c6f636b206e6f7420636f6d706c6574650000000000000000000000604482015290519081900360640190fd5b604080516370a0823160e01b815230600482015290516001600160a01b037f0000000000000000000000000000000000000000000000000000000000000000169163de0e9a3e9183916370a08231916024808301926020929190829003018186803b158015611ccc57600080fd5b505afa158015611ce0573d6000803e3d6000fd5b505050506040513d6020811015611cf657600080fd5b5051604080517fffffffff0000000000000000000000000000000000000000000000000000000060e085901b16815260048101929092525160248083019260209291908290030181600087803b158015611d4f57600080fd5b505af1158015611d63573d6000803e3d6000fd5b505050506040513d6020811015611d7957600080fd5b5050604080516370a0823160e01b815230600482015290516000916001600160a01b037f000000000000000000000000000000000000000000000000000000000000000016916370a0823191602480820192602092909190829003018186803b158015611de557600080fd5b505afa158015611df9573d6000803e3d6000fd5b505050506040513d6020811015611e0f57600080fd5b50516040805163095ea7b360e01b81526001600160a01b037f0000000000000000000000000000000000000000000000000000000000000000811660048301526024820184905291519293507f00000000000000000000000000000000000000000000000000000000000000009091169163095ea7b3916044808201926020929091908290030181600087803b158015611ea857600080fd5b505af1158015611ebc573d6000803e3d6000fd5b505050506040513d6020811015611ed257600080fd5b5050604080516327afaa2360e21b81526004810183905260006024820181905291516001600160a01b037f00000000000000000000000000000000000000000000000000000000000000001692639ebea88c926044808201939182900301818387803b158015611f4157600080fd5b505af1158015611f55573d6000803e3d6000fd5b5050505060007f00000000000000000000000000000000000000000000000000000000000000006001600160a01b03166370a08231306040518263ffffffff1660e01b815260040180826001600160a01b0316815260200191505060206040518083038186803b158015611fc857600080fd5b505afa158015611fdc573d6000803e3d6000fd5b505050506040513d6020811015611ff257600080fd5b505160075490915081111561200b576000600755612015565b6007805482900390555b600061202582633b9aca0061384a565b90507f00000000000000000000000000000000000000000000000000000000000000006001600160a01b031663095ea7b37f0000000000000000000000000000000000000000000000000000000000000000836040518363ffffffff1660e01b815260040180836001600160a01b0316815260200182815260200192505050602060405180830381600087803b1580156120be57600080fd5b505af11580156120d2573d6000803e3d6000fd5b505050506040513d60208110156120e857600080fd5b505060408051627b8a6760e11b8152600481018390526001600160a01b03868116602483015291517f00000000000000000000000000000000000000000000000000000000000000009092169162f714ce9160448082019260009290919082900301818387803b15801561215b57600080fd5b505af115801561216f573d6000803e3d6000fd5b5050600354604080516370a0823160e01b8152306004820152905161220394506001600160a01b039283169350918816916370a0823191602480820192602092909190829003018186803b1580156121c657600080fd5b505afa1580156121da573d6000803e3d6000fd5b505050506040513d60208110156121f057600080fd5b50516001600160a01b038716919061318c565b6040805183815290517faf5e14f4cc37b04db239269739bd935c4ed55328b691792af028e5570dfe61fa9181900360200190a150505050565b600160009054906101000a90046001600160a01b03166001600160a01b0316630c340a246040518163ffffffff1660e01b815260040160206040518083038186803b15801561228a57600080fd5b505afa15801561229e573d6000803e3d6000fd5b505050506040513d60208110156122b457600080fd5b50516000906001600160a01b031633146123275760405162461bcd60e51b815260206004820190815282546002600019610100600184161502019091160460248301819052909182916044909101908490801561094b5780601f106109205761010080835404028352916020019161094b565b506000856001600160a01b03166370a082317f00000000000000000000000000000000000000000000000000000000000000006040518263ffffffff1660e01b815260040180826001600160a01b0316815260200191505060206040518083038186803b15801561239757600080fd5b505afa1580156123ab573d6000803e3d6000fd5b505050506040513d60208110156123c157600080fd5b50516040805162b0eee360e41b81526001600160a01b0389811660048301526024820184905291519293507f000000000000000000000000000000000000000000000000000000000000000090911691630b0eee309160448082019260009290919082900301818387803b15801561243857600080fd5b505af115801561244c573d6000803e3d6000fd5b5050505060007f000000000000000000000000000000000000000000000000000000000000000090508561249d57507f00000000000000000000000000000000000000000000000000000000000000005b866001600160a01b031663095ea7b382846040518363ffffffff1660e01b815260040180836001600160a01b0316815260200182815260200192505050602060405180830381600087803b1580156124f457600080fd5b505af1158015612508573d6000803e3d6000fd5b505050506040513d602081101561251e57600080fd5b505060408051635d5155ef60e11b81526001600160a01b0387811660048301527f0000000000000000000000000000000000000000000000000000000000000000811660248301526044820185905260648201879052608482018690523060a48301524260c4830152825160009384939286169263baa2abde9260e4808301939282900301818787803b1580156125b457600080fd5b505af11580156125c8573d6000803e3d6000fd5b505050506040513d60408110156125de57600080fd5b508051602090910151600354604080516340c10f1960e01b81523060048201526024810184905290519395509193506001600160a01b0316916340c10f199160448082019260009290919082900301818387803b15801561263e57600080fd5b505af1158015612652573d6000803e3d6000fd5b50505050866001600160a01b031663095ea7b384846040518363ffffffff1660e01b815260040180836001600160a01b0316815260200182815260200192505050602060405180830381600087803b1580156126ad57600080fd5b505af11580156126c1573d6000803e3d6000fd5b505050506040513d60208110156126d757600080fd5b50506005546040805163095ea7b360e01b81526001600160a01b038681166004830152602482018590529151919092169163095ea7b39160448083019260209291908290030181600087803b15801561272f57600080fd5b505af1158015612743573d6000803e3d6000fd5b505050506040513d602081101561275957600080fd5b50506005546003546040805162e8e33760e81b81526001600160a01b038b81166004830152938416602482015260448101869052606481018590526084810186905260a4810185905291831660c48301524260e4830152519185169163e8e3370091610104808201926060929091908290030181600087803b1580156127de57600080fd5b505af11580156127f2573d6000803e3d6000fd5b505050506040513d606081101561280857600080fd5b5050505050505050505050565b600554600160a81b900460ff1615612860576040805162461bcd60e51b815260206004820152600960248201526829b43aba103237bbb760b91b604482015290519081900360640190fd5b6000807f00000000000000000000000000000000000000000000000000000000000000006001600160a01b03166370a08231336040518263ffffffff1660e01b815260040180826001600160a01b0316815260200191505060206040518083038186803b1580156128d057600080fd5b505afa1580156128e4573d6000803e3d6000fd5b505050506040513d60208110156128fa57600080fd5b5051604080516370a0823160e01b815233600482015290519192506000916001600160a01b037f000000000000000000000000000000000000000000000000000000000000000016916370a08231916024808301926020929190829003018186803b15801561296857600080fd5b505afa15801561297c573d6000803e3d6000fd5b505050506040513d602081101561299257600080fd5b5051604080516370a0823160e01b815233600482015290519192506000916001600160a01b037f000000000000000000000000000000000000000000000000000000000000000016916370a08231916024808301926020929190829003018186803b158015612a0057600080fd5b505afa158015612a14573d6000803e3d6000fd5b505050506040513d6020811015612a2a57600080fd5b5051118015612a425750600554600160a01b900460ff165b15612b1057604080516370a0823160e01b815233600482015290516001600160a01b037f000000000000000000000000000000000000000000000000000000000000000016916370a08231916024808301926020929190829003018186803b158015612aad57600080fd5b505afa158015612ac1573d6000803e3d6000fd5b505050506040513d6020811015612ad757600080fd5b50519250612b106001600160a01b037f000000000000000000000000000000000000000000000000000000000000000016333086612ea6565b8115612b4b57612b4b6001600160a01b037f000000000000000000000000000000000000000000000000000000000000000016333085612ea6565b8015612b8657612b866001600160a01b037f000000000000000000000000000000000000000000000000000000000000000016333084612ea6565b6000612c2b6001600160a01b037f000000000000000000000000000000000000000000000000000000000000000016634cb63e0d612bc487876132ef565b6040518263ffffffff1660e01b81526004018082815260200191505060206040518083038186803b158015612bf857600080fd5b505afa158015612c0c573d6000803e3d6000fd5b505050506040513d6020811015612c2257600080fd5b505183906132ef565b600554909150600160a01b900460ff1615612d1b577f00000000000000000000000000000000000000000000000000000000000000006001600160a01b03166318160ddd6040518163ffffffff1660e01b815260040160206040518083038186803b158015612c9957600080fd5b505afa158015612cad573d6000803e3d6000fd5b505050506040513d6020811015612cc357600080fd5b50516007541015612d0c576040805162461bcd60e51b815260206004820152600e60248201526d11d55255105d8c481b5a5b9d195960921b604482015290519081900360640190fd5b612d168186613019565b610c97565b600254604080516340c10f1960e01b81523360048201526024810184905290516001600160a01b03909216916340c10f199160448082019260009290919082900301818387803b158015612d6e57600080fd5b505af1158015612d82573d6000803e3d6000fd5b505050505050505050565b6004546001600160a01b031681565b600160009054906101000a90046001600160a01b03166001600160a01b0316630c340a246040518163ffffffff1660e01b815260040160206040518083038186803b158015612dea57600080fd5b505afa158015612dfe573d6000803e3d6000fd5b505050506040513d6020811015612e1457600080fd5b50516000906001600160a01b03163314612e875760405162461bcd60e51b815260206004820190815282546002600019610100600184161502019091160460248301819052909182916044909101908490801561094b5780601f106109205761010080835404028352916020019161094b565b50612e93816000613352565b50565b600554600160a81b900460ff1681565b604080516001600160a01b0385811660248301528481166044830152606480830185905283518084039091018152608490920183526020820180516001600160e01b03166323b872dd60e01b17815292518251600094606094938a169392918291908083835b60208310612f2b5780518252601f199092019160209182019101612f0c565b6001836020036101000a0380198251168184511680821785525050505050509050019150506000604051808303816000865af19150503d8060008114612f8d576040519150601f19603f3d011682016040523d82523d6000602084013e612f92565b606091505b5091509150818015612fc0575080511580612fc05750808060200190516020811015612fbd57600080fd5b50515b613011576040805162461bcd60e51b815260206004820152601460248201527f5452414e534645525f46524f4d5f4641494c4544000000000000000000000000604482015290519081900360640190fd5b505050505050565b600281600281111561302757fe5b141561304957600254613044906001600160a01b0316338461318c565b613188565b600181600281111561305757fe5b14156130e45760048054604080516339f4769360e01b8152339381019390935260248301859052516001600160a01b03909116916339f476939160448083019260209291908290030181600087803b1580156130b257600080fd5b505af11580156130c6573d6000803e3d6000fd5b505050506040513d60208110156130dc57600080fd5b506131889050565b60008160028111156130f257fe5b141561318857600480546040805163990966d560e01b81523393810193909352602483018590526000604484018190526064840181905290516001600160a01b039092169263990966d59260848083019360209383900390910190829087803b15801561315e57600080fd5b505af1158015613172573d6000803e3d6000fd5b505050506040513d60208110156107e157600080fd5b5050565b604080516001600160a01b038481166024830152604480830185905283518084039091018152606490920183526020820180516001600160e01b031663a9059cbb60e01b178152925182516000946060949389169392918291908083835b602083106132095780518252601f1990920191602091820191016131ea565b6001836020036101000a0380198251168184511680821785525050505050509050019150506000604051808303816000865af19150503d806000811461326b576040519150601f19603f3d011682016040523d82523d6000602084013e613270565b606091505b509150915081801561329e57508051158061329e575080806020019051602081101561329b57600080fd5b50515b610c97576040805162461bcd60e51b815260206004820152600f60248201527f5452414e534645525f4641494c45440000000000000000000000000000000000604482015290519081900360640190fd5b600082820183811015613349576040805162461bcd60e51b815260206004820152601b60248201527f536166654d6174683a206164646974696f6e206f766572666c6f770000000000604482015290519081900360640190fd5b90505b92915050565b6000826001600160a01b03166370a082317f00000000000000000000000000000000000000000000000000000000000000006040518263ffffffff1660e01b815260040180826001600160a01b0316815260200191505060206040518083038186803b1580156133c157600080fd5b505afa1580156133d5573d6000803e3d6000fd5b505050506040513d60208110156133eb57600080fd5b505160408051630186a27560e31b815290519192506000916001600160a01b037f00000000000000000000000000000000000000000000000000000000000000001691630c3513a8916004808301926020929190829003018186803b15801561345357600080fd5b505afa158015613467573d6000803e3d6000fd5b505050506040513d602081101561347d57600080fd5b505160408051630f762d4d60e11b81526001600160a01b0387811660048301526024820186905291519293506000927f000000000000000000000000000000000000000000000000000000000000000090921691631eec5a9a91604480820192602092909190829003018186803b1580156134f757600080fd5b505afa15801561350b573d6000803e3d6000fd5b505050506040513d602081101561352157600080fd5b50519050818111156135395750633b9aca0081029150805b7f00000000000000000000000000000000000000000000000000000000000000006001600160a01b0316630b0eee3086856040518363ffffffff1660e01b815260040180836001600160a01b0316815260200182815260200192505050600060405180830381600087803b1580156135b057600080fd5b505af11580156135c4573d6000803e3d6000fd5b505050508315613677576003546135e8906001600160a01b038781169116856138a3565b6003546040805163bc157ac160e01b8152600481018690526001600160a01b038881166024830152604482018590529151919092169163bc157ac19160648083019260209291908290030181600087803b15801561364557600080fd5b505af1158015613659573d6000803e3d6000fd5b505050506040513d602081101561366f57600080fd5b50610c979050565b600354610c97906001600160a01b0387811691168561318c565b600354604080516340c10f1960e01b81523060048201526024810184905290516001600160a01b03909216916340c10f199160448082019260009290919082900301818387803b1580156136e457600080fd5b505af11580156136f8573d6000803e3d6000fd5b5050600554600480546040805163095ea7b360e01b81526001600160a01b039283169381019390935260248301879052519216935063095ea7b392506044808201926020929091908290030181600087803b15801561375657600080fd5b505af115801561376a573d6000803e3d6000fd5b505050506040513d602081101561378057600080fd5b50506004805460408051631b0cd93b60e31b81523093810193909352602483018490526000604484018190526001606485015290516001600160a01b039092169263d866c9d89260848083019360209383900390910190829087803b1580156137e857600080fd5b505af11580156137fc573d6000803e3d6000fd5b505050506040513d602081101561381257600080fd5b50506040805182815290517fc4c14883ae9fd8e26d5d59e3485ed29fd126d781d7e498a4ca5c54c8268e49369181900360200190a150565b6000826138595750600061334c565b8282028284828161386657fe5b04146133495760405162461bcd60e51b8152600401808060200182810382526021815260200180613a076021913960400191505060405180910390fd5b604080516001600160a01b038481166024830152604480830185905283518084039091018152606490920183526020820180516001600160e01b031663095ea7b360e01b178152925182516000946060949389169392918291908083835b602083106139205780518252601f199092019160209182019101613901565b6001836020036101000a0380198251168184511680821785525050505050509050019150506000604051808303816000865af19150503d8060008114613982576040519150601f19603f3d011682016040523d82523d6000602084013e613987565b606091505b50915091508180156139b55750805115806139b557508080602001905160208110156139b257600080fd5b50515b610c97576040805162461bcd60e51b815260206004820152600e60248201527f415050524f56455f4641494c4544000000000000000000000000000000000000604482015290519081900360640190fdfe536166654d6174683a206d756c7469706c69636174696f6e206f766572666c6f7757697468647261772076616c7565206d7573742062652067726561746572207468616e2030a164736f6c6343000705000a",
  "devdoc": {
    "kind": "dev",
    "methods": {},
    "version": 1
  },
  "userdoc": {
    "kind": "user",
    "methods": {
      "migrateLP(address,bool,address,uint256,uint256)": {
        "notice": "Migrate LP and pair with new GUITA"
      }
    },
    "version": 1
  },
  "storageLayout": {
    "storage": [
      {
        "astId": 12601,
        "contract": "contracts/migration/GuitaTokenMigrator.sol:GuitaTokenMigrator",
        "label": "UNAUTHORIZED",
        "offset": 0,
        "slot": "0",
        "type": "t_string_storage"
      },
      {
        "astId": 12603,
        "contract": "contracts/migration/GuitaTokenMigrator.sol:GuitaTokenMigrator",
        "label": "authority",
        "offset": 0,
        "slot": "1",
        "type": "t_contract(IGuitaAuthority)6856"
      },
      {
        "astId": 9389,
        "contract": "contracts/migration/GuitaTokenMigrator.sol:GuitaTokenMigrator",
        "label": "gGUITA",
        "offset": 0,
        "slot": "2",
        "type": "t_contract(IgGUITA)7437"
      },
      {
        "astId": 9391,
        "contract": "contracts/migration/GuitaTokenMigrator.sol:GuitaTokenMigrator",
        "label": "newTreasury",
        "offset": 0,
        "slot": "3",
        "type": "t_contract(ITreasury)7130"
      },
      {
        "astId": 9393,
        "contract": "contracts/migration/GuitaTokenMigrator.sol:GuitaTokenMigrator",
        "label": "newStaking",
        "offset": 0,
        "slot": "4",
        "type": "t_contract(IStaking)6962"
      },
      {
        "astId": 9395,
        "contract": "contracts/migration/GuitaTokenMigrator.sol:GuitaTokenMigrator",
        "label": "newGUITA",
        "offset": 0,
        "slot": "5",
        "type": "t_contract(IERC20)6695"
      },
      {
        "astId": 9397,
        "contract": "contracts/migration/GuitaTokenMigrator.sol:GuitaTokenMigrator",
        "label": "guitaMigrated",
        "offset": 20,
        "slot": "5",
        "type": "t_bool"
      },
      {
        "astId": 9399,
        "contract": "contracts/migration/GuitaTokenMigrator.sol:GuitaTokenMigrator",
        "label": "shutdown",
        "offset": 21,
        "slot": "5",
        "type": "t_bool"
      },
      {
        "astId": 9403,
        "contract": "contracts/migration/GuitaTokenMigrator.sol:GuitaTokenMigrator",
        "label": "timelockEnd",
        "offset": 0,
        "slot": "6",
        "type": "t_uint256"
      },
      {
        "astId": 9405,
        "contract": "contracts/migration/GuitaTokenMigrator.sol:GuitaTokenMigrator",
        "label": "oldSupply",
        "offset": 0,
        "slot": "7",
        "type": "t_uint256"
      }
    ],
    "types": {
      "t_bool": {
        "encoding": "inplace",
        "label": "bool",
        "numberOfBytes": "1"
      },
      "t_contract(IERC20)6695": {
        "encoding": "inplace",
        "label": "contract IERC20",
        "numberOfBytes": "20"
      },
      "t_contract(IGuitaAuthority)6856": {
        "encoding": "inplace",
        "label": "contract IGuitaAuthority",
        "numberOfBytes": "20"
      },
      "t_contract(IStaking)6962": {
        "encoding": "inplace",
        "label": "contract IStaking",
        "numberOfBytes": "20"
      },
      "t_contract(ITreasury)7130": {
        "encoding": "inplace",
        "label": "contract ITreasury",
        "numberOfBytes": "20"
      },
      "t_contract(IgGUITA)7437": {
        "encoding": "inplace",
        "label": "contract IgGUITA",
        "numberOfBytes": "20"
      },
      "t_string_storage": {
        "encoding": "bytes",
        "label": "string",
        "numberOfBytes": "32"
      },
      "t_uint256": {
        "encoding": "inplace",
        "label": "uint256",
        "numberOfBytes": "32"
      }
    }
  }
}